:1000000012C0189518951895189518951895189563
:100010001895189518951895189518951895189578
:100020001895189518958FE58DBFC0E4E8E34E2E1E
:1000300084E08EBFD4E0F4E05F2EEEEFF3E0A0E6C4
:10004000B0E0A89584B7082E877F84BF88E1992700
:1000500081BD91BD88278D933197E9F76624A59AD4
:10006000AD98A29AAA98A19AA998889A9098899AE4
:1000700091988A9A92988B9A93988C9A9498A3982C
:10008000AB9ABD98C59AE1E0F0E0A0E6B0E091E05F
:1000900083D7E2E0F0E0A1E6B0E091E07DD7E3E0D5
:1000A000F0E0A2E6B0E091E077D7E4E0F0E0A3E68C
:1000B000B0E091E071D7E5E0F0E0A4E6B0E091E0D7
:1000C0006BD7E6E0F0E0A5E6B0E091E065D7E7E0C9
:1000D000F0E0A6E6B0E091E05FD7E8E0F0E0A7E668
:1000E000B0E091E059D700916000013081E009F063
:1000F00080E08F9300916100013081E009F080E0A1
:100100009F91892B8F9300916200013081E009F06B
:1001100080E09F91892B8F9300916300013081E0F3
:1001200009F080E09F91892B8F930091640001304A
:1001300081E009F080E09F91892B8F930091650009
:10014000013081E009F080E09F91892B8F9300912D
:100150006600013081E009F080E09F91892B8F9348
:1001600000916700013081E009F080E09F91892BC8
:10017000882309F401C003C081E0809360000091EE
:100180006000013009F003C0909891989298009116
:100190006100013009F003C09098919A9298009103
:1001A0006200013009F003C090989198929A0091F2
:1001B0006300013009F003C09098919A929A0091DF
:1001C0006400013081E009F080E08F930027A6E30E
:1001D000B0E08C9185FB0EF401E040E0041781E073
:1001E00009F080E09F918923882309F403C0909A45
:1001F0009198929800916500013081E009F080E0CB
:100200008F930027A6E3B0E08C9185FB0EF401E00C
:1002100040E0041781E009F080E09F918923882362
:1002200009F403C0909A919A929800916600013067
:1002300081E009F080E08F930027A6E3B0E08C9185
:1002400085FB0EF401E040E0041781E009F080E056
:100250009F918923882309F403C0909A9198929AD8
:1002600000916700013081E009F080E08F93002762
:10027000A6E3B0E08C9185FB0EF401E040E00417AA
:1002800081E009F080E09F918923882309F403C06D
:10029000909A919A929A0027A3E3B0E08C9183FB05
:1002A0000EF401E040E0041709F04EC08AE090E04F
:1002B0004AD60027A3E3B0E08C9183FB0EF401E063
:1002C00040E0041709F040C081E090E0A8E6B0E00B
:1002D0008D939C93A8E6B0E00D911C91083E53E0ED
:1002E000150714F009F030C081E090E02CD600270B
:1002F000A3E3B0E08C9183FB0EF401E040E004172F
:1003000081E009F080E08F93A8E6B0E00D911C91A8
:10031000073E53E0150781E009F080E09F918923B3
:10032000882309F401C013C00027A3E3B0E08C9137
:1003300083FB0EF401E041E0041709F001C0ABCFEC
:10034000A8E6B0E0F0D5C6CF939A9498A4CF939A3C
:10035000949A81E090E0A8E6B0E08D939C93A8E6A3
:10036000B0E00D911C91083E53E0150714F009F020
:1003700013C081E090E0E7D50027A3E3B0E08C91C3
:1003800083FB0EF401E041E0041709F001C0BFD582
:10039000A8E6B0E0C8D5E3CF939A949884EF91E0B3
:1003A000D2D500916000013009F001C01FC1009159
:1003B0006100013009F001C0A0C10091620001306C
:1003C00009F001C02BC200916300013081E009F007
:1003D00080E08F930027A6E3B0E08C9185FB0EF4BC
:1003E00001E041E0041781E009F080E09F9189235A
:1003F000882309F401C07DC000916300013081E0D1
:1004000009F080E08F930027A6E3B0E08C9185FB94
:100410000EF401E040E0041781E009F080E09F91D4
:100420008923882309F401C0A1C20091640001302E
:1004300081E009F080E08F930027A6E3B0E08C9183
:1004400085FB0EF401E040E0041781E009F080E054
:100450009F918923882309F401C02DC30091650071
:10046000013081E009F080E08F930027A6E3B0E03F
:100470008C9185FB0EF401E040E0041781E009F067
:1004800080E09F918923882309F401C0C3C30091B0
:100490006600013081E009F080E08F930027A6E339
:1004A000B0E08C9185FB0EF401E040E0041781E0A0
:1004B00009F080E09F918923882309F401C063C477
:1004C00000916700013081E009F080E08F93002700
:1004D000A6E3B0E08C9185FB0EF401E040E0041748
:1004E00081E009F080E09F918923882309F401C00D
:1004F00000C09398949A8CE291E025D5939A9498B1
:1005000081E090E0A8E6B0E08D939C93A8E6B0E08F
:100510000D911C910C3D55E0150714F009F066C0D3
:1005200081E090E010D50027A3E3B0E08C9183FB3D
:100530000EF401E041E0041709F054C0909891983E
:10054000929881E08093600080E08093610080E079
:100550008093620080E08093630080E08093640079
:1005600080E08093650080E08093660080E0809367
:100570006700E1E0F0E0A0E6B0E091E07BE7FBD4CB
:10058000E2E0F0E0A1E6B0E091E07BE7F4D4E3E064
:10059000F0E0A2E6B0E091E07BE7EDD4E4E0F0E04B
:1005A000A3E6B0E091E07BE7E6D4E5E0F0E0A4E686
:1005B000B0E091E07BE7DFD4E6E0F0E0A5E6B0E074
:1005C00091E07BE7D8D4E7E0F0E0A6E6B0E091E088
:1005D0007BE7D1D4E8E0F0E0A7E6B0E091E07BE78C
:1005E000CAD495D4A8E6B0E09ED490CF9398949ABC
:1005F0008CE291E0A8D4939A94988CE291E0A3D4F1
:100600009398949A8CE291E09ED4939A949881E086
:1006100090E0A8E6B0E08D939C93A8E6B0E00D9141
:100620001C910C3D55E0150714F009F066C081E0FF
:1006300090E089D40027A3E3B0E08C9183FB0EF413
:1006400001E041E0041709F054C09098919A929803
:1006500080E08093600081E08093610080E080937F
:10066000620080E08093630080E08093640080E01B
:100670008093650080E08093660080E0809367004F
:10068000E1E0F0E0A0E6B0E091E07BE774D4E2E0E6
:10069000F0E0A1E6B0E091E07BE76DD4E3E0F0E0CC
:1006A000A2E6B0E091E07BE766D4E4E0F0E0A3E608
:1006B000B0E091E07BE75FD4E5E0F0E0A4E6B0E0F5
:1006C00091E07BE758D4E6E0F0E0A5E6B0E091E009
:1006D0007BE751D4E7E0F0E0A6E6B0E091E07BE70D
:1006E0004AD4E8E0F0E0A7E6B0E091E07BE743D44D
:1006F0000ED4A8E6B0E017D490CF9398949A8CE2E9
:1007000091E021D4939A94988CE291E01CD4939830
:10071000949A8CE291E017D4939A94988CE291E0A9
:1007200012D49398949A8CE291E00DD4939A949871
:1007300081E090E0A8E6B0E08D939C93A8E6B0E05D
:100740000D911C910C3D55E0150714F009F066C0A1
:1007500081E090E0F8D30027A3E3B0E08C9183FB25
:100760000EF401E041E0041709F054C0909891980C
:10077000929A80E08093600080E08093610081E045
:100780008093620080E08093630080E08093640047
:1007900080E08093650080E08093660080E0809335
:1007A0006700E1E0F0E0A0E6B0E091E07BE7E3D3B2
:1007B000E2E0F0E0A1E6B0E091E07BE7DCD3E3E04B
:1007C000F0E0A2E6B0E091E07BE7D5D3E4E0F0E032
:1007D000A3E6B0E091E07BE7CED3E5E0F0E0A4E66D
:1007E000B0E091E07BE7C7D3E6E0F0E0A5E6B0E05B
:1007F00091E07BE7C0D3E7E0F0E0A6E6B0E091E06F
:100800007BE7B9D3E8E0F0E0A7E6B0E091E07BE772
:10081000B2D37DD3A8E6B0E086D390CF9398949AD4
:100820008CE291E090D3939A94988CE291E08BD3F0
:100830009398949A8CE291E086D3939A94988CE260
:1008400091E081D39398949A8CE291E07CD3939A2F
:1008500094988CE291E077D39398949A8CE291E00B
:1008600072D3939A949881E090E0A8E6B0E08D93DB
:100870009C93A8E6B0E00D911C910C3D55E0150746
:1008800014F009F066C081E090E05DD30027A3E397
:10089000B0E08C9183FB0EF401E041E0041709F015
:1008A00054C09098919A929A80E08093600080E082
:1008B0008093610080E08093620081E08093630018
:1008C00080E08093640080E08093650080E0809306
:1008D000660080E080936700E1E0F0E0A0E6B0E031
:1008E00091E07BE748D3E2E0F0E0A1E6B0E091E000
:1008F0007BE741D3E3E0F0E0A2E6B0E091E07BE704
:100900003AD3E4E0F0E0A3E6B0E091E07BE733D354
:10091000E5E0F0E0A4E6B0E091E07BE72CD3E6E090
:10092000F0E0A5E6B0E091E07BE725D3E7E0F0E07A
:10093000A6E6B0E091E07BE71ED3E8E0F0E0A7E6B2
:10094000B0E091E07BE717D3E2D2A8E6B0E0EBD2CB
:1009500090CF0027A6E3B0E08C9185FB0EF401E078
:1009600040E0041709F001C001C0C3CD9398949AE8
:100970008CE291E0E8D2939A94988CE291E0E3D2F1
:100980009398949A8CE291E0DED2939A94988CE2B8
:1009900091E0D9D29398949A8CE291E0D4D2939A30
:1009A00094988CE291E0CFD29398949A8CE291E063
:1009B000CAD2939A94988CE291E0C5D29398949A73
:1009C0008CE291E0C0D2939A949881E090E0A8E6FE
:1009D000B0E08D939C93A8E6B0E00D911C910C3D86
:1009E00055E0150714F009F066C081E090E0ABD245
:1009F0000027A3E3B0E08C9183FB0EF401E041E01B
:100A0000041709F054C0909A9198929880E08093CE
:100A1000600080E08093610080E08093620080E06D
:100A20008093630081E08093640080E080936500A0
:100A300080E08093660080E080936700E1E0F0E072
:100A4000A0E6B0E091E07BE796D2E2E0F0E0A1E63C
:100A5000B0E091E07BE78FD2E3E0F0E0A2E6B0E027
:100A600091E07BE788D2E4E0F0E0A3E6B0E091E03B
:100A70007BE781D2E5E0F0E0A4E6B0E091E07BE73F
:100A80007AD2E6E0F0E0A5E6B0E091E07BE773D251
:100A9000E7E0F0E0A6E6B0E091E07BE76CD2E8E0CA
:100AA000F0E0A7E6B0E091E07BE765D230D2A8E6BF
:100AB000B0E039D290CF9398949A8CE291E043D2EF
:100AC000939A94988CE291E03ED29398949A8CE217
:100AD00091E039D2939A94988CE291E034D2939831
:100AE000949A8CE291E02FD2939A94988CE291E0C0
:100AF0002AD29398949A8CE291E025D2939A949872
:100B00008CE291E020D29398949A8CE291E01BD2EF
:100B1000939A94988CE291E016D29398949A8CE2EE
:100B200091E011D2939A949881E090E0A8E6B0E029
:100B30008D939C93A8E6B0E00D911C910C3D55E07F
:100B4000150714F009F066C081E090E0FCD10027A1
:100B5000A3E3B0E08C9183FB0EF401E041E00417C5
:100B600009F054C0909A919A929880E08093600026
:100B700080E08093610080E08093620080E0809359
:100B8000630080E08093640081E08093650080E0F2
:100B90008093660080E080936700E1E0F0E0A0E6EB
:100BA000B0E091E07BE7E7D1E2E0F0E0A1E6B0E081
:100BB00091E07BE7E0D1E3E0F0E0A2E6B0E091E095
:100BC0007BE7D9D1E4E0F0E0A3E6B0E091E07BE799
:100BD000D2D1E5E0F0E0A4E6B0E091E07BE7CBD154
:100BE000E6E0F0E0A5E6B0E091E07BE7C4D1E7E025
:100BF000F0E0A6E6B0E091E07BE7BDD1E8E0F0E010
:100C0000A7E6B0E091E07BE7B6D181D1A8E6B0E0FD
:100C10008AD190CF9398949A8CE291E094D1939A50
:100C200094988CE291E08FD19398949A8CE291E021
:100C30008AD1939A94988CE291E085D19398949A72
:100C40008CE291E080D1939A94988CE291E07BD1F0
:100C50009398949A8CE291E076D1939A94988CE24E
:100C600091E071D19398949A8CE291E06CD1939A2F
:100C700094988CE291E067D19398949A8CE291E0F9
:100C800062D1939A94988CE291E05DD19398949A72
:100C90008CE291E058D1939A949881E090E0A8E694
:100CA000B0E08D939C93A8E6B0E00D911C910C3DB3
:100CB00055E0150714F009F066C081E090E043D1DB
:100CC0000027A3E3B0E08C9183FB0EF401E041E048
:100CD000041709F054C0909A9198929A80E08093FA
:100CE000600080E08093610080E08093620080E09B
:100CF0008093630080E08093640080E080936500CF
:100D000081E08093660080E080936700E1E0F0E09E
:100D1000A0E6B0E091E07BE72ED1E2E0F0E0A1E6D2
:100D2000B0E091E07BE727D1E3E0F0E0A2E6B0E0BD
:100D300091E07BE720D1E4E0F0E0A3E6B0E091E0D1
:100D40007BE719D1E5E0F0E0A4E6B0E091E07BE7D5
:100D500012D1E6E0F0E0A5E6B0E091E07BE70BD150
:100D6000E7E0F0E0A6E6B0E091E07BE704D1E8E060
:100D7000F0E0A7E6B0E091E07BE7FDD0C8D0A8E6C0
:100D8000B0E0D1D090CF9398949A8CE291E0DBD0F0
:100D9000939A94988CE291E0D6D09398949A8CE2AE
:100DA00091E0D1D0939A94988CE291E0CCD0939832
:100DB000949A8CE291E0C7D0939A94988CE291E057
:100DC000C2D09398949A8CE291E0BDD0939A949873
:100DD0008CE291E0B8D09398949A8CE291E0B3D0F1
:100DE000939A94988CE291E0AED09398949A8CE286
:100DF00091E0A9D0939A94988CE291E0A4D0939832
:100E0000949A8CE291E09FD0939A94988CE291E02E
:100E10009AD09398949A8CE291E095D0939A949872
:100E200081E090E0A8E6B0E08D939C93A8E6B0E066
:100E30000D911C910C3D55E0150714F009F066C0AA
:100E400081E090E080D00027A3E3B0E08C9183FBA9
:100E50000EF401E041E0041709F054C0909A919A11
:100E6000929A80E08093600080E08093610080E04F
:100E70008093620080E08093630080E08093640050
:100E800080E08093650080E08093660081E080933D
:100E90006700E1E0F0E0A0E6B0E091E07BE76BD036
:100EA000E2E0F0E0A1E6B0E091E07BE764D0E3E0CF
:100EB000F0E0A2E6B0E091E07BE75DD0E4E0F0E0B6
:100EC000A3E6B0E091E07BE756D0E5E0F0E0A4E6F1
:100ED000B0E091E07BE74FD0E6E0F0E0A5E6B0E0DF
:100EE00091E07BE748D0E7E0F0E0A6E6B0E091E0F3
:100EF0007BE741D0E8E0F0E0A7E6B0E091E07BE7F7
:100F00003AD005D0A8E6B0E00ED090CFF2CAAA9AA7
:100F1000A99A8CE291E017D0A99888EC90E013D0C0
:100F2000AA98B9C90895ED91FC91EF5FFF4FFC932A
:100F3000EE9308953197F1F70895689462F8089553
:100F4000E89462F80895EF93FF93EE27E82BE92BDE
:100F500031F0EAEFF0E03197F1F70197D1F7FF9127
:100F6000EF910895E199FECFEEBBFFBB3196089556
:100F700091E001C092E07B3751F47FB7F894F2DF43
:100F80008D918DBBE29AE19A9A95C9F77FBF772739
:100F9000089591E001C092E0E5DFE09A8DB38D9372
:060FA0009A95D1F70895B7
:00000001FF
